{
  "_format": "hh-sol-artifact-1",
  "contractName": "SandglassIridium",
  "sourceName": "contracts/SandglassIridium.sol",
  "abi": [
    {
      "inputs": [
        {
          "internalType": "string",
          "name": "name",
          "type": "string"
        },
        {
          "internalType": "string",
          "name": "symbol",
          "type": "string"
        },
        {
          "internalType": "string",
          "name": "baseTokenURI",
          "type": "string"
        },
        {
          "internalType": "uint256",
          "name": "max",
          "type": "uint256"
        },
        {
          "internalType": "address",
          "name": "admin",
          "type": "address"
        }
      ],
      "stateMutability": "nonpayable",
      "type": "constructor"
    },
    {
      "anonymous": false,
      "inputs": [
        {
          "indexed": true,
          "internalType": "address",
          "name": "owner",
          "type": "address"
        },
        {
          "indexed": true,
          "internalType": "address",
          "name": "approved",
          "type": "address"
        },
        {
          "indexed": true,
          "internalType": "uint256",
          "name": "tokenId",
          "type": "uint256"
        }
      ],
      "name": "Approval",
      "type": "event"
    },
    {
      "anonymous": false,
      "inputs": [
        {
          "indexed": true,
          "internalType": "address",
          "name": "owner",
          "type": "address"
        },
        {
          "indexed": true,
          "internalType": "address",
          "name": "operator",
          "type": "address"
        },
        {
          "indexed": false,
          "internalType": "bool",
          "name": "approved",
          "type": "bool"
        }
      ],
      "name": "ApprovalForAll",
      "type": "event"
    },
    {
      "anonymous": false,
      "inputs": [
        {
          "indexed": true,
          "internalType": "address",
          "name": "previousOwner",
          "type": "address"
        },
        {
          "indexed": true,
          "internalType": "address",
          "name": "newOwner",
          "type": "address"
        }
      ],
      "name": "OwnershipTransferred",
      "type": "event"
    },
    {
      "anonymous": false,
      "inputs": [
        {
          "indexed": true,
          "internalType": "bytes32",
          "name": "role",
          "type": "bytes32"
        },
        {
          "indexed": true,
          "internalType": "bytes32",
          "name": "previousAdminRole",
          "type": "bytes32"
        },
        {
          "indexed": true,
          "internalType": "bytes32",
          "name": "newAdminRole",
          "type": "bytes32"
        }
      ],
      "name": "RoleAdminChanged",
      "type": "event"
    },
    {
      "anonymous": false,
      "inputs": [
        {
          "indexed": true,
          "internalType": "bytes32",
          "name": "role",
          "type": "bytes32"
        },
        {
          "indexed": true,
          "internalType": "address",
          "name": "account",
          "type": "address"
        },
        {
          "indexed": true,
          "internalType": "address",
          "name": "sender",
          "type": "address"
        }
      ],
      "name": "RoleGranted",
      "type": "event"
    },
    {
      "anonymous": false,
      "inputs": [
        {
          "indexed": true,
          "internalType": "bytes32",
          "name": "role",
          "type": "bytes32"
        },
        {
          "indexed": true,
          "internalType": "address",
          "name": "account",
          "type": "address"
        },
        {
          "indexed": true,
          "internalType": "address",
          "name": "sender",
          "type": "address"
        }
      ],
      "name": "RoleRevoked",
      "type": "event"
    },
    {
      "anonymous": false,
      "inputs": [
        {
          "indexed": true,
          "internalType": "address",
          "name": "from",
          "type": "address"
        },
        {
          "indexed": true,
          "internalType": "address",
          "name": "to",
          "type": "address"
        },
        {
          "indexed": true,
          "internalType": "uint256",
          "name": "tokenId",
          "type": "uint256"
        }
      ],
      "name": "Transfer",
      "type": "event"
    },
    {
      "inputs": [],
      "name": "DEFAULT_ADMIN_ROLE",
      "outputs": [
        {
          "internalType": "bytes32",
          "name": "",
          "type": "bytes32"
        }
      ],
      "stateMutability": "view",
      "type": "function"
    },
    {
      "inputs": [],
      "name": "_tokenIdTracker",
      "outputs": [
        {
          "internalType": "uint256",
          "name": "_value",
          "type": "uint256"
        }
      ],
      "stateMutability": "view",
      "type": "function"
    },
    {
      "inputs": [
        {
          "internalType": "address",
          "name": "to",
          "type": "address"
        },
        {
          "internalType": "uint256",
          "name": "tokenId",
          "type": "uint256"
        }
      ],
      "name": "approve",
      "outputs": [],
      "stateMutability": "nonpayable",
      "type": "function"
    },
    {
      "inputs": [
        {
          "internalType": "address",
          "name": "owner",
          "type": "address"
        }
      ],
      "name": "balanceOf",
      "outputs": [
        {
          "internalType": "uint256",
          "name": "",
          "type": "uint256"
        }
      ],
      "stateMutability": "view",
      "type": "function"
    },
    {
      "inputs": [
        {
          "internalType": "uint256",
          "name": "_salePrice",
          "type": "uint256"
        }
      ],
      "name": "calculateRoyalty",
      "outputs": [
        {
          "internalType": "uint256",
          "name": "",
          "type": "uint256"
        }
      ],
      "stateMutability": "view",
      "type": "function"
    },
    {
      "inputs": [
        {
          "internalType": "uint256",
          "name": "tokenId",
          "type": "uint256"
        }
      ],
      "name": "getApproved",
      "outputs": [
        {
          "internalType": "address",
          "name": "",
          "type": "address"
        }
      ],
      "stateMutability": "view",
      "type": "function"
    },
    {
      "inputs": [
        {
          "internalType": "bytes32",
          "name": "role",
          "type": "bytes32"
        }
      ],
      "name": "getRoleAdmin",
      "outputs": [
        {
          "internalType": "bytes32",
          "name": "",
          "type": "bytes32"
        }
      ],
      "stateMutability": "view",
      "type": "function"
    },
    {
      "inputs": [
        {
          "internalType": "bytes32",
          "name": "role",
          "type": "bytes32"
        },
        {
          "internalType": "uint256",
          "name": "index",
          "type": "uint256"
        }
      ],
      "name": "getRoleMember",
      "outputs": [
        {
          "internalType": "address",
          "name": "",
          "type": "address"
        }
      ],
      "stateMutability": "view",
      "type": "function"
    },
    {
      "inputs": [
        {
          "internalType": "bytes32",
          "name": "role",
          "type": "bytes32"
        }
      ],
      "name": "getRoleMemberCount",
      "outputs": [
        {
          "internalType": "uint256",
          "name": "",
          "type": "uint256"
        }
      ],
      "stateMutability": "view",
      "type": "function"
    },
    {
      "inputs": [
        {
          "internalType": "bytes32",
          "name": "role",
          "type": "bytes32"
        },
        {
          "internalType": "address",
          "name": "account",
          "type": "address"
        }
      ],
      "name": "grantRole",
      "outputs": [],
      "stateMutability": "nonpayable",
      "type": "function"
    },
    {
      "inputs": [
        {
          "internalType": "bytes32",
          "name": "role",
          "type": "bytes32"
        },
        {
          "internalType": "address",
          "name": "account",
          "type": "address"
        }
      ],
      "name": "hasRole",
      "outputs": [
        {
          "internalType": "bool",
          "name": "",
          "type": "bool"
        }
      ],
      "stateMutability": "view",
      "type": "function"
    },
    {
      "inputs": [
        {
          "internalType": "address",
          "name": "owner",
          "type": "address"
        },
        {
          "internalType": "address",
          "name": "operator",
          "type": "address"
        }
      ],
      "name": "isApprovedForAll",
      "outputs": [
        {
          "internalType": "bool",
          "name": "",
          "type": "bool"
        }
      ],
      "stateMutability": "view",
      "type": "function"
    },
    {
      "inputs": [
        {
          "internalType": "uint256",
          "name": "amount",
          "type": "uint256"
        }
      ],
      "name": "mint",
      "outputs": [],
      "stateMutability": "payable",
      "type": "function"
    },
    {
      "inputs": [
        {
          "internalType": "uint256",
          "name": "",
          "type": "uint256"
        }
      ],
      "name": "minter",
      "outputs": [
        {
          "internalType": "address",
          "name": "",
          "type": "address"
        }
      ],
      "stateMutability": "view",
      "type": "function"
    },
    {
      "inputs": [],
      "name": "name",
      "outputs": [
        {
          "internalType": "string",
          "name": "",
          "type": "string"
        }
      ],
      "stateMutability": "view",
      "type": "function"
    },
    {
      "inputs": [],
      "name": "owner",
      "outputs": [
        {
          "internalType": "address",
          "name": "",
          "type": "address"
        }
      ],
      "stateMutability": "view",
      "type": "function"
    },
    {
      "inputs": [
        {
          "internalType": "uint256",
          "name": "tokenId",
          "type": "uint256"
        }
      ],
      "name": "ownerOf",
      "outputs": [
        {
          "internalType": "address",
          "name": "",
          "type": "address"
        }
      ],
      "stateMutability": "view",
      "type": "function"
    },
    {
      "inputs": [],
      "name": "price",
      "outputs": [
        {
          "internalType": "uint256",
          "name": "",
          "type": "uint256"
        }
      ],
      "stateMutability": "view",
      "type": "function"
    },
    {
      "inputs": [],
      "name": "renounceOwnership",
      "outputs": [],
      "stateMutability": "nonpayable",
      "type": "function"
    },
    {
      "inputs": [
        {
          "internalType": "bytes32",
          "name": "role",
          "type": "bytes32"
        },
        {
          "internalType": "address",
          "name": "account",
          "type": "address"
        }
      ],
      "name": "renounceRole",
      "outputs": [],
      "stateMutability": "nonpayable",
      "type": "function"
    },
    {
      "inputs": [
        {
          "internalType": "bytes32",
          "name": "role",
          "type": "bytes32"
        },
        {
          "internalType": "address",
          "name": "account",
          "type": "address"
        }
      ],
      "name": "revokeRole",
      "outputs": [],
      "stateMutability": "nonpayable",
      "type": "function"
    },
    {
      "inputs": [
        {
          "internalType": "uint256",
          "name": "_tokenId",
          "type": "uint256"
        },
        {
          "internalType": "uint256",
          "name": "_salePrice",
          "type": "uint256"
        }
      ],
      "name": "royaltyInfo",
      "outputs": [
        {
          "internalType": "address",
          "name": "receiver",
          "type": "address"
        },
        {
          "internalType": "uint256",
          "name": "royaltyAmount",
          "type": "uint256"
        }
      ],
      "stateMutability": "view",
      "type": "function"
    },
    {
      "inputs": [
        {
          "internalType": "address",
          "name": "from",
          "type": "address"
        },
        {
          "internalType": "address",
          "name": "to",
          "type": "address"
        },
        {
          "internalType": "uint256",
          "name": "tokenId",
          "type": "uint256"
        }
      ],
      "name": "safeTransferFrom",
      "outputs": [],
      "stateMutability": "nonpayable",
      "type": "function"
    },
    {
      "inputs": [
        {
          "internalType": "address",
          "name": "from",
          "type": "address"
        },
        {
          "internalType": "address",
          "name": "to",
          "type": "address"
        },
        {
          "internalType": "uint256",
          "name": "tokenId",
          "type": "uint256"
        },
        {
          "internalType": "bytes",
          "name": "_data",
          "type": "bytes"
        }
      ],
      "name": "safeTransferFrom",
      "outputs": [],
      "stateMutability": "nonpayable",
      "type": "function"
    },
    {
      "inputs": [
        {
          "internalType": "address",
          "name": "operator",
          "type": "address"
        },
        {
          "internalType": "bool",
          "name": "approved",
          "type": "bool"
        }
      ],
      "name": "setApprovalForAll",
      "outputs": [],
      "stateMutability": "nonpayable",
      "type": "function"
    },
    {
      "inputs": [
        {
          "internalType": "string",
          "name": "baseURI",
          "type": "string"
        }
      ],
      "name": "setBaseURI",
      "outputs": [],
      "stateMutability": "nonpayable",
      "type": "function"
    },
    {
      "inputs": [
        {
          "internalType": "uint256",
          "name": "mintPrice",
          "type": "uint256"
        }
      ],
      "name": "setPrice",
      "outputs": [],
      "stateMutability": "nonpayable",
      "type": "function"
    },
    {
      "inputs": [
        {
          "internalType": "address",
          "name": "_reciever",
          "type": "address"
        },
        {
          "internalType": "uint96",
          "name": "_royaltyFee",
          "type": "uint96"
        }
      ],
      "name": "setRoyalty",
      "outputs": [],
      "stateMutability": "nonpayable",
      "type": "function"
    },
    {
      "inputs": [
        {
          "internalType": "uint256",
          "name": "tokenId",
          "type": "uint256"
        },
        {
          "internalType": "string",
          "name": "_tokenURI",
          "type": "string"
        }
      ],
      "name": "setTokenURI",
      "outputs": [],
      "stateMutability": "nonpayable",
      "type": "function"
    },
    {
      "inputs": [
        {
          "internalType": "uint256",
          "name": "",
          "type": "uint256"
        }
      ],
      "name": "skipToken",
      "outputs": [
        {
          "internalType": "bool",
          "name": "",
          "type": "bool"
        }
      ],
      "stateMutability": "view",
      "type": "function"
    },
    {
      "inputs": [
        {
          "internalType": "bytes4",
          "name": "interfaceId",
          "type": "bytes4"
        }
      ],
      "name": "supportsInterface",
      "outputs": [
        {
          "internalType": "bool",
          "name": "",
          "type": "bool"
        }
      ],
      "stateMutability": "view",
      "type": "function"
    },
    {
      "inputs": [],
      "name": "symbol",
      "outputs": [
        {
          "internalType": "string",
          "name": "",
          "type": "string"
        }
      ],
      "stateMutability": "view",
      "type": "function"
    },
    {
      "inputs": [
        {
          "internalType": "uint256",
          "name": "index",
          "type": "uint256"
        }
      ],
      "name": "tokenByIndex",
      "outputs": [
        {
          "internalType": "uint256",
          "name": "",
          "type": "uint256"
        }
      ],
      "stateMutability": "view",
      "type": "function"
    },
    {
      "inputs": [
        {
          "internalType": "uint256",
          "name": "tokenId",
          "type": "uint256"
        }
      ],
      "name": "tokenMinter",
      "outputs": [
        {
          "internalType": "address",
          "name": "",
          "type": "address"
        }
      ],
      "stateMutability": "view",
      "type": "function"
    },
    {
      "inputs": [
        {
          "internalType": "address",
          "name": "owner",
          "type": "address"
        },
        {
          "internalType": "uint256",
          "name": "index",
          "type": "uint256"
        }
      ],
      "name": "tokenOfOwnerByIndex",
      "outputs": [
        {
          "internalType": "uint256",
          "name": "",
          "type": "uint256"
        }
      ],
      "stateMutability": "view",
      "type": "function"
    },
    {
      "inputs": [
        {
          "internalType": "uint256",
          "name": "tokenId",
          "type": "uint256"
        }
      ],
      "name": "tokenURI",
      "outputs": [
        {
          "internalType": "string",
          "name": "",
          "type": "string"
        }
      ],
      "stateMutability": "view",
      "type": "function"
    },
    {
      "inputs": [],
      "name": "totalSupply",
      "outputs": [
        {
          "internalType": "uint256",
          "name": "",
          "type": "uint256"
        }
      ],
      "stateMutability": "view",
      "type": "function"
    },
    {
      "inputs": [
        {
          "internalType": "address",
          "name": "from",
          "type": "address"
        },
        {
          "internalType": "address",
          "name": "to",
          "type": "address"
        },
        {
          "internalType": "uint256",
          "name": "tokenId",
          "type": "uint256"
        }
      ],
      "name": "transferFrom",
      "outputs": [],
      "stateMutability": "nonpayable",
      "type": "function"
    },
    {
      "inputs": [
        {
          "internalType": "address",
          "name": "newOwner",
          "type": "address"
        }
      ],
      "name": "transferOwnership",
      "outputs": [],
      "stateMutability": "nonpayable",
      "type": "function"
    },
    {
      "inputs": [
        {
          "internalType": "address",
          "name": "_owner",
          "type": "address"
        }
      ],
      "name": "walletOfOwner",
      "outputs": [
        {
          "internalType": "uint256[]",
          "name": "",
          "type": "uint256[]"
        }
      ],
      "stateMutability": "view",
      "type": "function"
    },
    {
      "inputs": [
        {
          "internalType": "address",
          "name": "_recipient",
          "type": "address"
        }
      ],
      "name": "withdraw",
      "outputs": [],
      "stateMutability": "payable",
      "type": "function"
    }
  ],
  "bytecode": "0x60806040523480156200001157600080fd5b50604051620072c6380380620072c6833981810160405281019062000037919062001510565b8484816002908051906020019062000051929190620013c0565b5080600390805190602001906200006a929190620013c0565b5050506200008d620000816200057d60201b60201c565b6200058560201b60201c565b82600f9080519060200190620000a5929190620013c0565b50670214e8348c4f00006010819055508160118190555080601260006101000a81548173ffffffffffffffffffffffffffffffffffffffff021916908373ffffffffffffffffffffffffffffffffffffffff16021790555080601360006101000a81548173ffffffffffffffffffffffffffffffffffffffff021916908373ffffffffffffffffffffffffffffffffffffffff16021790555062000155600e6200064b60201b62001dea1760201c565b6200016a6000801b826200066160201b60201c565b6101f4601360146101000a8154816bffffffffffffffffffffffff02191690836bffffffffffffffffffffffff1602179055506001601560006023815260200190815260200160002060006101000a81548160ff02191690831515021790555060016015600061015e815260200190815260200160002060006101000a81548160ff02191690831515021790555060016015600061015f815260200190815260200160002060006101000a81548160ff021916908315150217905550600160156000610160815260200190815260200160002060006101000a81548160ff021916908315150217905550600160156000610161815260200190815260200160002060006101000a81548160ff021916908315150217905550600160156000610162815260200190815260200160002060006101000a81548160ff021916908315150217905550600160156000610162815260200190815260200160002060006101000a81548160ff02191690831515021790555060016015600060bb815260200190815260200160002060006101000a81548160ff02191690831515021790555060016015600060cb815260200190815260200160002060006101000a81548160ff021916908315150217905550600160156000610132815260200190815260200160002060006101000a81548160ff021916908315150217905550600160156000610154815260200190815260200160002060006101000a81548160ff021916908315150217905550600160156000610155815260200190815260200160002060006101000a81548160ff021916908315150217905550600160156000610156815260200190815260200160002060006101000a81548160ff021916908315150217905550600160156000610157815260200190815260200160002060006101000a81548160ff021916908315150217905550600160156000610159815260200190815260200160002060006101000a81548160ff02191690831515021790555060016015600061017b815260200190815260200160002060006101000a81548160ff021916908315150217905550600160156000610205815260200190815260200160002060006101000a81548160ff02191690831515021790555060016015600061024f815260200190815260200160002060006101000a81548160ff021916908315150217905550600160156000610268815260200190815260200160002060006101000a81548160ff021916908315150217905550600160156000610293815260200190815260200160002060006101000a81548160ff0219169083151502179055506001601560006102e9815260200190815260200160002060006101000a81548160ff02191690831515021790555062000572600c620006a960201b60201c565b505050505062001bd1565b600033905090565b6000600d60009054906101000a900473ffffffffffffffffffffffffffffffffffffffff16905081600d60006101000a81548173ffffffffffffffffffffffffffffffffffffffff021916908373ffffffffffffffffffffffffffffffffffffffff1602179055508173ffffffffffffffffffffffffffffffffffffffff168173ffffffffffffffffffffffffffffffffffffffff167f8be0079c531659141344cd1fd0a4f28419497f9722a3daafe3b4186f6b6457e060405160405180910390a35050565b6001816000016000828254019250508190555050565b6200067882826200093260201b62001e001760201c565b620006a481600160008581526020019081526020016000206200094860201b62001e0e1790919060201c565b505050565b620006b96200098060201b60201c565b73ffffffffffffffffffffffffffffffffffffffff163373ffffffffffffffffffffffffffffffffffffffff1614620007ac5780601054620006fc91906200197c565b341462000740576040517f08c379a0000000000000000000000000000000000000000000000000000000008152600401620007379062001863565b60405180910390fd5b601154816200075b600e620009aa60201b62001e3e1760201c565b6200076791906200191f565b1115620007ab576040517f08c379a0000000000000000000000000000000000000000000000000000000008152600401620007a290620017db565b60405180910390fd5b5b6014811115620007f3576040517f08c379a0000000000000000000000000000000000000000000000000000000008152600401620007ea9062001885565b60405180910390fd5b60005b818110156200092e5760011515601560006200081e600e620009aa60201b62001e3e1760201c565b815260200190815260200160002060009054906101000a900460ff161515141562000870576200085a600e6200064b60201b62001dea1760201c565b8180620008679062001ac2565b92505062000918565b62000898336200088c600e620009aa60201b62001e3e1760201c565b620009b860201b60201c565b3360146000620008b4600e620009aa60201b62001e3e1760201c565b815260200190815260200160002060006101000a81548173ffffffffffffffffffffffffffffffffffffffff021916908373ffffffffffffffffffffffffffffffffffffffff16021790555062000917600e6200064b60201b62001dea1760201c565b5b8080620009259062001ac2565b915050620007f6565b5050565b62000944828262000b9e60201b60201c565b5050565b600062000978836000018373ffffffffffffffffffffffffffffffffffffffff1660001b62000c8f60201b60201c565b905092915050565b6000600d60009054906101000a900473ffffffffffffffffffffffffffffffffffffffff16905090565b600081600001549050919050565b600073ffffffffffffffffffffffffffffffffffffffff168273ffffffffffffffffffffffffffffffffffffffff16141562000a2b576040517f08c379a000000000000000000000000000000000000000000000000000000000815260040162000a229062001841565b60405180910390fd5b62000a3c8162000d0960201b60201c565b1562000a7f576040517f08c379a000000000000000000000000000000000000000000000000000000000815260040162000a7690620017fd565b60405180910390fd5b62000a936000838362000d7560201b60201c565b6001600560008473ffffffffffffffffffffffffffffffffffffffff1673ffffffffffffffffffffffffffffffffffffffff168152602001908152602001600020600082825462000ae591906200191f565b92505081905550816004600083815260200190815260200160002060006101000a81548173ffffffffffffffffffffffffffffffffffffffff021916908373ffffffffffffffffffffffffffffffffffffffff160217905550808273ffffffffffffffffffffffffffffffffffffffff16600073ffffffffffffffffffffffffffffffffffffffff167fddf252ad1be2c89b69c2b068fc378daa952ba7f163c4a11628f55a4df523b3ef60405160405180910390a45050565b62000bb0828262000d9260201b60201c565b62000c8b57600160008084815260200190815260200160002060000160008373ffffffffffffffffffffffffffffffffffffffff1673ffffffffffffffffffffffffffffffffffffffff16815260200190815260200160002060006101000a81548160ff02191690831515021790555062000c306200057d60201b60201c565b73ffffffffffffffffffffffffffffffffffffffff168173ffffffffffffffffffffffffffffffffffffffff16837f2f8788117e7eff1d82e926ec794901d17c78024a50270940304540a733656f0d60405160405180910390a45b5050565b600062000ca3838362000dfc60201b60201c565b62000cfe57826000018290806001815401808255809150506001900390600052602060002001600090919091909150558260000180549050836001016000848152602001908152602001600020819055506001905062000d03565b600090505b92915050565b60008073ffffffffffffffffffffffffffffffffffffffff166004600084815260200190815260200160002060009054906101000a900473ffffffffffffffffffffffffffffffffffffffff1673ffffffffffffffffffffffffffffffffffffffff1614159050919050565b62000d8d83838362000e1f60201b62001e4c1760201c565b505050565b600080600084815260200190815260200160002060000160008373ffffffffffffffffffffffffffffffffffffffff1673ffffffffffffffffffffffffffffffffffffffff16815260200190815260200160002060009054906101000a900460ff16905092915050565b600080836001016000848152602001908152602001600020541415905092915050565b62000e3783838362000f6660201b62001f601760201c565b600073ffffffffffffffffffffffffffffffffffffffff168373ffffffffffffffffffffffffffffffffffffffff16141562000e845762000e7e8162000f6b60201b60201c565b62000ecc565b8173ffffffffffffffffffffffffffffffffffffffff168373ffffffffffffffffffffffffffffffffffffffff161462000ecb5762000eca838262000fb460201b60201c565b5b5b600073ffffffffffffffffffffffffffffffffffffffff168273ffffffffffffffffffffffffffffffffffffffff16141562000f195762000f13816200113160201b60201c565b62000f61565b8273ffffffffffffffffffffffffffffffffffffffff168273ffffffffffffffffffffffffffffffffffffffff161462000f605762000f5f82826200127960201b60201c565b5b5b505050565b505050565b600a80549050600b600083815260200190815260200160002081905550600a81908060018154018082558091505060019003906000526020600020016000909190919091505550565b6000600162000fce846200130560201b620012d51760201c565b62000fda9190620019dd565b9050600060096000848152602001908152602001600020549050818114620010c0576000600860008673ffffffffffffffffffffffffffffffffffffffff1673ffffffffffffffffffffffffffffffffffffffff168152602001908152602001600020600084815260200190815260200160002054905080600860008773ffffffffffffffffffffffffffffffffffffffff1673ffffffffffffffffffffffffffffffffffffffff168152602001908152602001600020600084815260200190815260200160002081905550816009600083815260200190815260200160002081905550505b6009600084815260200190815260200160002060009055600860008573ffffffffffffffffffffffffffffffffffffffff1673ffffffffffffffffffffffffffffffffffffffff16815260200190815260200160002060008381526020019081526020016000206000905550505050565b60006001600a80549050620011479190620019dd565b90506000600b60008481526020019081526020016000205490506000600a83815481106200119e577f4e487b7100000000000000000000000000000000000000000000000000000000600052603260045260246000fd5b9060005260206000200154905080600a8381548110620011e7577f4e487b7100000000000000000000000000000000000000000000000000000000600052603260045260246000fd5b906000526020600020018190555081600b600083815260200190815260200160002081905550600b600085815260200190815260200160002060009055600a8054806200125d577f4e487b7100000000000000000000000000000000000000000000000000000000600052603160045260246000fd5b6001900381819060005260206000200160009055905550505050565b600062001291836200130560201b620012d51760201c565b905081600860008573ffffffffffffffffffffffffffffffffffffffff1673ffffffffffffffffffffffffffffffffffffffff168152602001908152602001600020600083815260200190815260200160002081905550806009600084815260200190815260200160002081905550505050565b60008073ffffffffffffffffffffffffffffffffffffffff168273ffffffffffffffffffffffffffffffffffffffff16141562001379576040517f08c379a000000000000000000000000000000000000000000000000000000000815260040162001370906200181f565b60405180910390fd5b600560008373ffffffffffffffffffffffffffffffffffffffff1673ffffffffffffffffffffffffffffffffffffffff168152602001908152602001600020549050919050565b828054620013ce9062001a8c565b90600052602060002090601f016020900481019282620013f257600085556200143e565b82601f106200140d57805160ff19168380011785556200143e565b828001600101855582156200143e579182015b828111156200143d57825182559160200191906001019062001420565b5b5090506200144d919062001451565b5090565b5b808211156200146c57600081600090555060010162001452565b5090565b6000620014876200148184620018db565b620018a7565b905082815260208101848484011115620014a057600080fd5b620014ad84828562001a56565b509392505050565b600081519050620014c68162001b9d565b92915050565b600082601f830112620014de57600080fd5b8151620014f084826020860162001470565b91505092915050565b6000815190506200150a8162001bb7565b92915050565b600080600080600060a086880312156200152957600080fd5b600086015167ffffffffffffffff8111156200154457600080fd5b6200155288828901620014cc565b955050602086015167ffffffffffffffff8111156200157057600080fd5b6200157e88828901620014cc565b945050604086015167ffffffffffffffff8111156200159c57600080fd5b620015aa88828901620014cc565b9350506060620015bd88828901620014f9565b9250506080620015d088828901620014b5565b9150509295509295909350565b6000620015ec602b836200190e565b91507f4e6f7420656e6f75676820746f6b656e73206c65667420746f206d696e74207460008301527f68697320616d6f756e742e0000000000000000000000000000000000000000006020830152604082019050919050565b600062001654601c836200190e565b91507f4552433732313a20746f6b656e20616c7265616479206d696e746564000000006000830152602082019050919050565b600062001696602a836200190e565b91507f4552433732313a2062616c616e636520717565727920666f7220746865207a6560008301527f726f2061646472657373000000000000000000000000000000000000000000006020830152604082019050919050565b6000620016fe6020836200190e565b91507f4552433732313a206d696e7420746f20746865207a65726f20616464726573736000830152602082019050919050565b6000620017406022836200190e565b91507f4e6f7420656e6f756768206176617820696e2077616c6c657420746f206d696e60008301527f742e0000000000000000000000000000000000000000000000000000000000006020830152604082019050919050565b6000620017a8601f836200190e565b91507f4f6e6c792032302063616e206265206d696e74656420617420612074696d65006000830152602082019050919050565b60006020820190508181036000830152620017f681620015dd565b9050919050565b60006020820190508181036000830152620018188162001645565b9050919050565b600060208201905081810360008301526200183a8162001687565b9050919050565b600060208201905081810360008301526200185c81620016ef565b9050919050565b600060208201905081810360008301526200187e8162001731565b9050919050565b60006020820190508181036000830152620018a08162001799565b9050919050565b6000604051905081810181811067ffffffffffffffff82111715620018d157620018d062001b6e565b5b8060405250919050565b600067ffffffffffffffff821115620018f957620018f862001b6e565b5b601f19601f8301169050602081019050919050565b600082825260208201905092915050565b60006200192c8262001a4c565b9150620019398362001a4c565b9250827fffffffffffffffffffffffffffffffffffffffffffffffffffffffffffffffff0382111562001971576200197062001b10565b5b828201905092915050565b6000620019898262001a4c565b9150620019968362001a4c565b9250817fffffffffffffffffffffffffffffffffffffffffffffffffffffffffffffffff0483118215151615620019d257620019d162001b10565b5b828202905092915050565b6000620019ea8262001a4c565b9150620019f78362001a4c565b92508282101562001a0d5762001a0c62001b10565b5b828203905092915050565b600062001a258262001a2c565b9050919050565b600073ffffffffffffffffffffffffffffffffffffffff82169050919050565b6000819050919050565b60005b8381101562001a7657808201518184015260208101905062001a59565b8381111562001a86576000848401525b50505050565b6000600282049050600182168062001aa557607f821691505b6020821081141562001abc5762001abb62001b3f565b5b50919050565b600062001acf8262001a4c565b91507fffffffffffffffffffffffffffffffffffffffffffffffffffffffffffffffff82141562001b055762001b0462001b10565b5b600182019050919050565b7f4e487b7100000000000000000000000000000000000000000000000000000000600052601160045260246000fd5b7f4e487b7100000000000000000000000000000000000000000000000000000000600052602260045260246000fd5b7f4e487b7100000000000000000000000000000000000000000000000000000000600052604160045260246000fd5b62001ba88162001a18565b811462001bb457600080fd5b50565b62001bc28162001a4c565b811462001bce57600080fd5b50565b6156e58062001be16000396000f3fe6080604052600436106102465760003560e01c8063715018a611610139578063a0712d68116100b6578063b88d4fde1161007a578063b88d4fde146108f5578063c87b56dd1461091e578063ca15c8731461095b578063d547741f14610998578063e985e9c5146109c1578063f2fde38b146109fe57610246565b8063a0712d681461080b578063a217fddf14610827578063a22cb46514610852578063a2e696131461087b578063ac8d856c146108b857610246565b806391b7f5ed116100fd57806391b7f5ed1461072457806391d148541461074d57806395d89b411461078a57806398bcede9146107b5578063a035b1fe146107e057610246565b8063715018a61461063f5780637c57d947146106565780638da5cb5b146106935780638f2fc60b146106be5780639010d07c146106e757610246565b80632f745c59116101c757806351cff8d91161018b57806351cff8d91461054357806355f804b31461055f5780635684627a146105885780636352211e146105c557806370a082311461060257610246565b80632f745c591461043a57806336568abe1461047757806342842e0e146104a0578063438b6300146104c95780634f6ccce71461050657610246565b806318160ddd1161020e57806318160ddd1461034257806323b872dd1461036d578063248a9ca3146103965780632a55205a146103d35780632f2ff15d1461041157610246565b806301ffc9a71461024b57806306fdde0314610288578063081812fc146102b3578063095ea7b3146102f0578063162094c414610319575b600080fd5b34801561025757600080fd5b50610272600480360381019061026d9190613eec565b610a27565b60405161027f9190614d95565b60405180910390f35b34801561029457600080fd5b5061029d610a69565b6040516102aa9190614dcb565b60405180910390f35b3480156102bf57600080fd5b506102da60048036038101906102d59190613f7f565b610afb565b6040516102e79190614ce3565b60405180910390f35b3480156102fc57600080fd5b5061031760048036038101906103129190613dd3565b610b80565b005b34801561032557600080fd5b50610340600480360381019061033b9190613fa8565b610c98565b005b34801561034e57600080fd5b50610357610cf9565b604051610364919061516d565b60405180910390f35b34801561037957600080fd5b50610394600480360381019061038f9190613ccd565b610d06565b005b3480156103a257600080fd5b506103bd60048036038101906103b89190613e4b565b610d66565b6040516103ca9190614db0565b60405180910390f35b3480156103df57600080fd5b506103fa60048036038101906103f59190613ffc565b610d85565b604051610408929190614d4a565b60405180910390f35b34801561041d57600080fd5b5061043860048036038101906104339190613e74565b610dbf565b005b34801561044657600080fd5b50610461600480360381019061045c9190613dd3565b610df3565b60405161046e919061516d565b60405180910390f35b34801561048357600080fd5b5061049e60048036038101906104999190613e74565b610e98565b005b3480156104ac57600080fd5b506104c760048036038101906104c29190613ccd565b610ecc565b005b3480156104d557600080fd5b506104f060048036038101906104eb9190613c68565b610eec565b6040516104fd9190614d73565b60405180910390f35b34801561051257600080fd5b5061052d60048036038101906105289190613f7f565b610fe6565b60405161053a919061516d565b60405180910390f35b61055d60048036038101906105589190613c68565b61107d565b005b34801561056b57600080fd5b5061058660048036038101906105819190613f3e565b611196565b005b34801561059457600080fd5b506105af60048036038101906105aa9190613f7f565b611203565b6040516105bc9190614d95565b60405180910390f35b3480156105d157600080fd5b506105ec60048036038101906105e79190613f7f565b611223565b6040516105f99190614ce3565b60405180910390f35b34801561060e57600080fd5b5061062960048036038101906106249190613c68565b6112d5565b604051610636919061516d565b60405180910390f35b34801561064b57600080fd5b5061065461138d565b005b34801561066257600080fd5b5061067d60048036038101906106789190613f7f565b611415565b60405161068a9190614ce3565b60405180910390f35b34801561069f57600080fd5b506106a8611452565b6040516106b59190614ce3565b60405180910390f35b3480156106ca57600080fd5b506106e560048036038101906106e09190613e0f565b61147c565b005b3480156106f357600080fd5b5061070e60048036038101906107099190613eb0565b611545565b60405161071b9190614ce3565b60405180910390f35b34801561073057600080fd5b5061074b60048036038101906107469190613f7f565b611574565b005b34801561075957600080fd5b50610774600480360381019061076f9190613e74565b6115d1565b6040516107819190614d95565b60405180910390f35b34801561079657600080fd5b5061079f61163b565b6040516107ac9190614dcb565b60405180910390f35b3480156107c157600080fd5b506107ca6116cd565b6040516107d7919061516d565b60405180910390f35b3480156107ec57600080fd5b506107f56116d9565b604051610802919061516d565b60405180910390f35b61082560048036038101906108209190613f7f565b6116e3565b005b34801561083357600080fd5b5061083c6118f8565b6040516108499190614db0565b60405180910390f35b34801561085e57600080fd5b5061087960048036038101906108749190613d97565b6118ff565b005b34801561088757600080fd5b506108a2600480360381019061089d9190613f7f565b611a80565b6040516108af919061516d565b60405180910390f35b3480156108c457600080fd5b506108df60048036038101906108da9190613f7f565b611aca565b6040516108ec9190614ce3565b60405180910390f35b34801561090157600080fd5b5061091c60048036038101906109179190613d1c565b611afd565b005b34801561092a57600080fd5b5061094560048036038101906109409190613f7f565b611b5f565b6040516109529190614dcb565b60405180910390f35b34801561096757600080fd5b50610982600480360381019061097d9190613e4b565b611c06565b60405161098f919061516d565b60405180910390f35b3480156109a457600080fd5b506109bf60048036038101906109ba9190613e74565b611c2a565b005b3480156109cd57600080fd5b506109e860048036038101906109e39190613c91565b611c5e565b6040516109f59190614d95565b60405180910390f35b348015610a0a57600080fd5b50610a256004803603810190610a209190613c68565b611cf2565b005b6000632a55205a60e01b827bffffffffffffffffffffffffffffffffffffffffffffffffffffffff19161480610a625750610a6182611f65565b5b9050919050565b606060028054610a78906154ac565b80601f0160208091040260200160405190810160405280929190818152602001828054610aa4906154ac565b8015610af15780601f10610ac657610100808354040283529160200191610af1565b820191906000526020600020905b815481529060010190602001808311610ad457829003601f168201915b5050505050905090565b6000610b0682611fdf565b610b45576040517f08c379a0000000000000000000000000000000000000000000000000000000008152600401610b3c90614fed565b60405180910390fd5b6006600083815260200190815260200160002060009054906101000a900473ffffffffffffffffffffffffffffffffffffffff169050919050565b6000610b8b82611223565b90508073ffffffffffffffffffffffffffffffffffffffff168373ffffffffffffffffffffffffffffffffffffffff161415610bfc576040517f08c379a0000000000000000000000000000000000000000000000000000000008152600401610bf39061506d565b60405180910390fd5b8073ffffffffffffffffffffffffffffffffffffffff16610c1b61204b565b73ffffffffffffffffffffffffffffffffffffffff161480610c4a5750610c4981610c4461204b565b611c5e565b5b610c89576040517f08c379a0000000000000000000000000000000000000000000000000000000008152600401610c8090614f4d565b60405180910390fd5b610c938383612053565b505050565b610cac6000801b610ca761204b565b6115d1565b610ceb576040517f08c379a0000000000000000000000000000000000000000000000000000000008152600401610ce290614f0d565b60405180910390fd5b610cf5828261210c565b5050565b6000600a80549050905090565b610d17610d1161204b565b82612180565b610d56576040517f08c379a0000000000000000000000000000000000000000000000000000000008152600401610d4d906150ad565b60405180910390fd5b610d6183838361225e565b505050565b6000806000838152602001908152602001600020600101549050919050565b600080601360009054906101000a900473ffffffffffffffffffffffffffffffffffffffff16610db484611a80565b915091509250929050565b610dc982826124ba565b610dee8160016000858152602001908152602001600020611e0e90919063ffffffff16565b505050565b6000610dfe836112d5565b8210610e3f576040517f08c379a0000000000000000000000000000000000000000000000000000000008152600401610e3690614e2d565b60405180910390fd5b600860008473ffffffffffffffffffffffffffffffffffffffff1673ffffffffffffffffffffffffffffffffffffffff168152602001908152602001600020600083815260200190815260200160002054905092915050565b610ea282826124e3565b610ec7816001600085815260200190815260200160002061256690919063ffffffff16565b505050565b610ee783838360405180602001604052806000815250611afd565b505050565b60606000610ef9836112d5565b905060008167ffffffffffffffff811115610f3d577f4e487b7100000000000000000000000000000000000000000000000000000000600052604160045260246000fd5b604051908082528060200260200182016040528015610f6b5781602001602082028036833780820191505090505b50905060005b82811015610fdb57610f838582610df3565b828281518110610fbc577f4e487b7100000000000000000000000000000000000000000000000000000000600052603260045260246000fd5b6020026020010181815250508080610fd3906154de565b915050610f71565b508092505050919050565b6000610ff0610cf9565b8210611031576040517f08c379a0000000000000000000000000000000000000000000000000000000008152600401611028906150ed565b60405180910390fd5b600a828154811061106b577f4e487b7100000000000000000000000000000000000000000000000000000000600052603260045260246000fd5b90600052602060002001549050919050565b61108561204b565b73ffffffffffffffffffffffffffffffffffffffff166110a3611452565b73ffffffffffffffffffffffffffffffffffffffff16146110f9576040517f08c379a00000000000000000000000000000000000000000000000000000000081526004016110f09061500d565b60405180910390fd5b61110d6000801b61110861204b565b6115d1565b61114c576040517f08c379a00000000000000000000000000000000000000000000000000000000081526004016111439061512d565b60405180910390fd5b8073ffffffffffffffffffffffffffffffffffffffff166108fc479081150290604051600060405180830381858888f19350505050158015611192573d6000803e3d6000fd5b5050565b6111aa6000801b6111a561204b565b6115d1565b6111e9576040517f08c379a00000000000000000000000000000000000000000000000000000000081526004016111e0906150cd565b60405180910390fd5b80600f90805190602001906111ff929190613a62565b5050565b60156020528060005260406000206000915054906101000a900460ff1681565b6000806004600084815260200190815260200160002060009054906101000a900473ffffffffffffffffffffffffffffffffffffffff169050600073ffffffffffffffffffffffffffffffffffffffff168173ffffffffffffffffffffffffffffffffffffffff1614156112cc576040517f08c379a00000000000000000000000000000000000000000000000000000000081526004016112c390614f8d565b60405180910390fd5b80915050919050565b60008073ffffffffffffffffffffffffffffffffffffffff168273ffffffffffffffffffffffffffffffffffffffff161415611346576040517f08c379a000000000000000000000000000000000000000000000000000000000815260040161133d90614f6d565b60405180910390fd5b600560008373ffffffffffffffffffffffffffffffffffffffff1673ffffffffffffffffffffffffffffffffffffffff168152602001908152602001600020549050919050565b61139561204b565b73ffffffffffffffffffffffffffffffffffffffff166113b3611452565b73ffffffffffffffffffffffffffffffffffffffff1614611409576040517f08c379a00000000000000000000000000000000000000000000000000000000081526004016114009061500d565b60405180910390fd5b6114136000612596565b565b60006014600083815260200190815260200160002060009054906101000a900473ffffffffffffffffffffffffffffffffffffffff169050919050565b6000600d60009054906101000a900473ffffffffffffffffffffffffffffffffffffffff16905090565b6114906000801b61148b61204b565b6115d1565b6114cf576040517f08c379a00000000000000000000000000000000000000000000000000000000081526004016114c6906150cd565b60405180910390fd5b81601360006101000a81548173ffffffffffffffffffffffffffffffffffffffff021916908373ffffffffffffffffffffffffffffffffffffffff16021790555080601360146101000a8154816bffffffffffffffffffffffff02191690836bffffffffffffffffffffffff1602179055505050565b600061156c826001600086815260200190815260200160002061265c90919063ffffffff16565b905092915050565b6115886000801b61158361204b565b6115d1565b6115c7576040517f08c379a00000000000000000000000000000000000000000000000000000000081526004016115be90614e0d565b60405180910390fd5b8060108190555050565b600080600084815260200190815260200160002060000160008373ffffffffffffffffffffffffffffffffffffffff1673ffffffffffffffffffffffffffffffffffffffff16815260200190815260200160002060009054906101000a900460ff16905092915050565b60606003805461164a906154ac565b80601f0160208091040260200160405190810160405280929190818152602001828054611676906154ac565b80156116c35780601f10611698576101008083540402835291602001916116c3565b820191906000526020600020905b8154815290600101906020018083116116a657829003601f168201915b5050505050905090565b600e8060000154905081565b6000601054905090565b6116eb611452565b73ffffffffffffffffffffffffffffffffffffffff163373ffffffffffffffffffffffffffffffffffffffff16146117c6578060105461172b919061531c565b341461176c576040517f08c379a00000000000000000000000000000000000000000000000000000000081526004016117639061508d565b60405180910390fd5b6011548161177a600e611e3e565b6117849190615295565b11156117c5576040517f08c379a00000000000000000000000000000000000000000000000000000000081526004016117bc90614e8d565b60405180910390fd5b5b601481111561180a576040517f08c379a00000000000000000000000000000000000000000000000000000000081526004016118019061510d565b60405180910390fd5b60005b818110156118f4576001151560156000611827600e611e3e565b815260200190815260200160002060009054906101000a900460ff161515141561186857611855600e611dea565b8180611860906154de565b9250506118e1565b61187b33611876600e611e3e565b612676565b336014600061188a600e611e3e565b815260200190815260200160002060006101000a81548173ffffffffffffffffffffffffffffffffffffffff021916908373ffffffffffffffffffffffffffffffffffffffff1602179055506118e0600e611dea565b5b80806118ec906154de565b91505061180d565b5050565b6000801b81565b61190761204b565b73ffffffffffffffffffffffffffffffffffffffff168273ffffffffffffffffffffffffffffffffffffffff161415611975576040517f08c379a000000000000000000000000000000000000000000000000000000000815260040161196c90614eed565b60405180910390fd5b806007600061198261204b565b73ffffffffffffffffffffffffffffffffffffffff1673ffffffffffffffffffffffffffffffffffffffff16815260200190815260200160002060008473ffffffffffffffffffffffffffffffffffffffff1673ffffffffffffffffffffffffffffffffffffffff16815260200190815260200160002060006101000a81548160ff0219169083151502179055508173ffffffffffffffffffffffffffffffffffffffff16611a2f61204b565b73ffffffffffffffffffffffffffffffffffffffff167f17307eab39ab6107e8899845ad3d59bd9653f200f220920489ca2b5937696c3183604051611a749190614d95565b60405180910390a35050565b6000601360149054906101000a90046bffffffffffffffffffffffff166bffffffffffffffffffffffff1661271083611ab991906152eb565b611ac3919061531c565b9050919050565b60146020528060005260406000206000915054906101000a900473ffffffffffffffffffffffffffffffffffffffff1681565b611b0e611b0861204b565b83612180565b611b4d576040517f08c379a0000000000000000000000000000000000000000000000000000000008152600401611b44906150ad565b60405180910390fd5b611b5984848484612844565b50505050565b6060611b6a82611fdf565b611ba9576040517f08c379a0000000000000000000000000000000000000000000000000000000008152600401611ba09061504d565b60405180910390fd5b6000611bb36128a0565b90506000815111611bd35760405180602001604052806000815250611bfe565b80611bdd84612932565b604051602001611bee929190614c7a565b6040516020818303038152906040525b915050919050565b6000611c2360016000848152602001908152602001600020612adf565b9050919050565b611c348282612af4565b611c59816001600085815260200190815260200160002061256690919063ffffffff16565b505050565b6000600760008473ffffffffffffffffffffffffffffffffffffffff1673ffffffffffffffffffffffffffffffffffffffff16815260200190815260200160002060008373ffffffffffffffffffffffffffffffffffffffff1673ffffffffffffffffffffffffffffffffffffffff16815260200190815260200160002060009054906101000a900460ff16905092915050565b611cfa61204b565b73ffffffffffffffffffffffffffffffffffffffff16611d18611452565b73ffffffffffffffffffffffffffffffffffffffff1614611d6e576040517f08c379a0000000000000000000000000000000000000000000000000000000008152600401611d659061500d565b60405180910390fd5b600073ffffffffffffffffffffffffffffffffffffffff168173ffffffffffffffffffffffffffffffffffffffff161415611dde576040517f08c379a0000000000000000000000000000000000000000000000000000000008152600401611dd590614e6d565b60405180910390fd5b611de781612596565b50565b6001816000016000828254019250508190555050565b611e0a8282612b1d565b5050565b6000611e36836000018373ffffffffffffffffffffffffffffffffffffffff1660001b612bfd565b905092915050565b600081600001549050919050565b611e57838383611f60565b600073ffffffffffffffffffffffffffffffffffffffff168373ffffffffffffffffffffffffffffffffffffffff161415611e9a57611e9581612c6d565b611ed9565b8173ffffffffffffffffffffffffffffffffffffffff168373ffffffffffffffffffffffffffffffffffffffff1614611ed857611ed78382612cb6565b5b5b600073ffffffffffffffffffffffffffffffffffffffff168273ffffffffffffffffffffffffffffffffffffffff161415611f1c57611f1781612e23565b611f5b565b8273ffffffffffffffffffffffffffffffffffffffff168273ffffffffffffffffffffffffffffffffffffffff1614611f5a57611f598282612f66565b5b5b505050565b505050565b60007f780e9d63000000000000000000000000000000000000000000000000000000007bffffffffffffffffffffffffffffffffffffffffffffffffffffffff1916827bffffffffffffffffffffffffffffffffffffffffffffffffffffffff19161480611fd85750611fd782612fe5565b5b9050919050565b60008073ffffffffffffffffffffffffffffffffffffffff166004600084815260200190815260200160002060009054906101000a900473ffffffffffffffffffffffffffffffffffffffff1673ffffffffffffffffffffffffffffffffffffffff1614159050919050565b600033905090565b816006600083815260200190815260200160002060006101000a81548173ffffffffffffffffffffffffffffffffffffffff021916908373ffffffffffffffffffffffffffffffffffffffff160217905550808273ffffffffffffffffffffffffffffffffffffffff166120c683611223565b73ffffffffffffffffffffffffffffffffffffffff167f8c5be1e5ebec7d5bd14f71427d1e84f3dd0314c0f7b2291e5b200ac8c7c3b92560405160405180910390a45050565b61211582611fdf565b612154576040517f08c379a000000000000000000000000000000000000000000000000000000000815260040161214b90614fad565b60405180910390fd5b80600c6000848152602001908152602001600020908051906020019061217b929190613a62565b505050565b600061218b82611fdf565b6121ca576040517f08c379a00000000000000000000000000000000000000000000000000000000081526004016121c190614f2d565b60405180910390fd5b60006121d583611223565b90508073ffffffffffffffffffffffffffffffffffffffff168473ffffffffffffffffffffffffffffffffffffffff16148061224457508373ffffffffffffffffffffffffffffffffffffffff1661222c84610afb565b73ffffffffffffffffffffffffffffffffffffffff16145b8061225557506122548185611c5e565b5b91505092915050565b8273ffffffffffffffffffffffffffffffffffffffff1661227e82611223565b73ffffffffffffffffffffffffffffffffffffffff16146122d4576040517f08c379a00000000000000000000000000000000000000000000000000000000081526004016122cb9061502d565b60405180910390fd5b600073ffffffffffffffffffffffffffffffffffffffff168273ffffffffffffffffffffffffffffffffffffffff161415612344576040517f08c379a000000000000000000000000000000000000000000000000000000000815260040161233b90614ecd565b60405180910390fd5b61234f8383836130c7565b61235a600082612053565b6001600560008573ffffffffffffffffffffffffffffffffffffffff1673ffffffffffffffffffffffffffffffffffffffff16815260200190815260200160002060008282546123aa9190615376565b925050819055506001600560008473ffffffffffffffffffffffffffffffffffffffff1673ffffffffffffffffffffffffffffffffffffffff16815260200190815260200160002060008282546124019190615295565b92505081905550816004600083815260200190815260200160002060006101000a81548173ffffffffffffffffffffffffffffffffffffffff021916908373ffffffffffffffffffffffffffffffffffffffff160217905550808273ffffffffffffffffffffffffffffffffffffffff168473ffffffffffffffffffffffffffffffffffffffff167fddf252ad1be2c89b69c2b068fc378daa952ba7f163c4a11628f55a4df523b3ef60405160405180910390a4505050565b6124c382610d66565b6124d4816124cf61204b565b6130d7565b6124de8383612b1d565b505050565b6124eb61204b565b73ffffffffffffffffffffffffffffffffffffffff168173ffffffffffffffffffffffffffffffffffffffff1614612558576040517f08c379a000000000000000000000000000000000000000000000000000000000815260040161254f9061514d565b60405180910390fd5b6125628282613174565b5050565b600061258e836000018373ffffffffffffffffffffffffffffffffffffffff1660001b613255565b905092915050565b6000600d60009054906101000a900473ffffffffffffffffffffffffffffffffffffffff16905081600d60006101000a81548173ffffffffffffffffffffffffffffffffffffffff021916908373ffffffffffffffffffffffffffffffffffffffff1602179055508173ffffffffffffffffffffffffffffffffffffffff168173ffffffffffffffffffffffffffffffffffffffff167f8be0079c531659141344cd1fd0a4f28419497f9722a3daafe3b4186f6b6457e060405160405180910390a35050565b600061266b83600001836133db565b60001c905092915050565b600073ffffffffffffffffffffffffffffffffffffffff168273ffffffffffffffffffffffffffffffffffffffff1614156126e6576040517f08c379a00000000000000000000000000000000000000000000000000000000081526004016126dd90614fcd565b60405180910390fd5b6126ef81611fdf565b1561272f576040517f08c379a000000000000000000000000000000000000000000000000000000000815260040161272690614ead565b60405180910390fd5b61273b600083836130c7565b6001600560008473ffffffffffffffffffffffffffffffffffffffff1673ffffffffffffffffffffffffffffffffffffffff168152602001908152602001600020600082825461278b9190615295565b92505081905550816004600083815260200190815260200160002060006101000a81548173ffffffffffffffffffffffffffffffffffffffff021916908373ffffffffffffffffffffffffffffffffffffffff160217905550808273ffffffffffffffffffffffffffffffffffffffff16600073ffffffffffffffffffffffffffffffffffffffff167fddf252ad1be2c89b69c2b068fc378daa952ba7f163c4a11628f55a4df523b3ef60405160405180910390a45050565b61284f84848461225e565b61285b8484848461342c565b61289a576040517f08c379a000000000000000000000000000000000000000000000000000000000815260040161289190614e4d565b60405180910390fd5b50505050565b6060600f80546128af906154ac565b80601f01602080910402602001604051908101604052809291908181526020018280546128db906154ac565b80156129285780601f106128fd57610100808354040283529160200191612928565b820191906000526020600020905b81548152906001019060200180831161290b57829003601f168201915b5050505050905090565b6060600082141561297a576040518060400160405280600181526020017f30000000000000000000000000000000000000000000000000000000000000008152509050612ada565b600082905060005b600082146129ac578080612995906154de565b915050600a826129a591906152eb565b9150612982565b60008167ffffffffffffffff8111156129ee577f4e487b7100000000000000000000000000000000000000000000000000000000600052604160045260246000fd5b6040519080825280601f01601f191660200182016040528015612a205781602001600182028036833780820191505090505b5090505b60008514612ad357600182612a399190615376565b9150600a85612a489190615527565b6030612a549190615295565b60f81b818381518110612a90577f4e487b7100000000000000000000000000000000000000000000000000000000600052603260045260246000fd5b60200101907effffffffffffffffffffffffffffffffffffffffffffffffffffffffffffff1916908160001a905350600a85612acc91906152eb565b9450612a24565b8093505050505b919050565b6000612aed826000016135c3565b9050919050565b612afd82610d66565b612b0e81612b0961204b565b6130d7565b612b188383613174565b505050565b612b2782826115d1565b612bf957600160008084815260200190815260200160002060000160008373ffffffffffffffffffffffffffffffffffffffff1673ffffffffffffffffffffffffffffffffffffffff16815260200190815260200160002060006101000a81548160ff021916908315150217905550612b9e61204b565b73ffffffffffffffffffffffffffffffffffffffff168173ffffffffffffffffffffffffffffffffffffffff16837f2f8788117e7eff1d82e926ec794901d17c78024a50270940304540a733656f0d60405160405180910390a45b5050565b6000612c0983836135d4565b612c62578260000182908060018154018082558091505060019003906000526020600020016000909190919091505582600001805490508360010160008481526020019081526020016000208190555060019050612c67565b600090505b92915050565b600a80549050600b600083815260200190815260200160002081905550600a81908060018154018082558091505060019003906000526020600020016000909190919091505550565b60006001612cc3846112d5565b612ccd9190615376565b9050600060096000848152602001908152602001600020549050818114612db2576000600860008673ffffffffffffffffffffffffffffffffffffffff1673ffffffffffffffffffffffffffffffffffffffff168152602001908152602001600020600084815260200190815260200160002054905080600860008773ffffffffffffffffffffffffffffffffffffffff1673ffffffffffffffffffffffffffffffffffffffff168152602001908152602001600020600084815260200190815260200160002081905550816009600083815260200190815260200160002081905550505b6009600084815260200190815260200160002060009055600860008573ffffffffffffffffffffffffffffffffffffffff1673ffffffffffffffffffffffffffffffffffffffff16815260200190815260200160002060008381526020019081526020016000206000905550505050565b60006001600a80549050612e379190615376565b90506000600b60008481526020019081526020016000205490506000600a8381548110612e8d577f4e487b7100000000000000000000000000000000000000000000000000000000600052603260045260246000fd5b9060005260206000200154905080600a8381548110612ed5577f4e487b7100000000000000000000000000000000000000000000000000000000600052603260045260246000fd5b906000526020600020018190555081600b600083815260200190815260200160002081905550600b600085815260200190815260200160002060009055600a805480612f4a577f4e487b7100000000000000000000000000000000000000000000000000000000600052603160045260246000fd5b6001900381819060005260206000200160009055905550505050565b6000612f71836112d5565b905081600860008573ffffffffffffffffffffffffffffffffffffffff1673ffffffffffffffffffffffffffffffffffffffff168152602001908152602001600020600083815260200190815260200160002081905550806009600084815260200190815260200160002081905550505050565b60007f80ac58cd000000000000000000000000000000000000000000000000000000007bffffffffffffffffffffffffffffffffffffffffffffffffffffffff1916827bffffffffffffffffffffffffffffffffffffffffffffffffffffffff191614806130b057507f5b5e139f000000000000000000000000000000000000000000000000000000007bffffffffffffffffffffffffffffffffffffffffffffffffffffffff1916827bffffffffffffffffffffffffffffffffffffffffffffffffffffffff1916145b806130c057506130bf826135f7565b5b9050919050565b6130d2838383611e4c565b505050565b6130e182826115d1565b613170576131068173ffffffffffffffffffffffffffffffffffffffff166014613671565b6131148360001c6020613671565b604051602001613125929190614ca9565b6040516020818303038152906040526040517f08c379a00000000000000000000000000000000000000000000000000000000081526004016131679190614dcb565b60405180910390fd5b5050565b61317e82826115d1565b1561325157600080600084815260200190815260200160002060000160008373ffffffffffffffffffffffffffffffffffffffff1673ffffffffffffffffffffffffffffffffffffffff16815260200190815260200160002060006101000a81548160ff0219169083151502179055506131f661204b565b73ffffffffffffffffffffffffffffffffffffffff168173ffffffffffffffffffffffffffffffffffffffff16837ff6391f5c32d9c69d2a47ea670b442974b53935d1edc7fd64eb21e047a839171b60405160405180910390a45b5050565b600080836001016000848152602001908152602001600020549050600081146133cf5760006001826132879190615376565b905060006001866000018054905061329f9190615376565b905081811461335a5760008660000182815481106132e6577f4e487b7100000000000000000000000000000000000000000000000000000000600052603260045260246000fd5b9060005260206000200154905080876000018481548110613330577f4e487b7100000000000000000000000000000000000000000000000000000000600052603260045260246000fd5b90600052602060002001819055508387600101600083815260200190815260200160002081905550505b85600001805480613394577f4e487b7100000000000000000000000000000000000000000000000000000000600052603160045260246000fd5b6001900381819060005260206000200160009055905585600101600086815260200190815260200160002060009055600193505050506133d5565b60009150505b92915050565b6000826000018281548110613419577f4e487b7100000000000000000000000000000000000000000000000000000000600052603260045260246000fd5b9060005260206000200154905092915050565b600061344d8473ffffffffffffffffffffffffffffffffffffffff1661396b565b156135b6578373ffffffffffffffffffffffffffffffffffffffff1663150b7a0261347661204b565b8786866040518563ffffffff1660e01b81526004016134989493929190614cfe565b602060405180830381600087803b1580156134b257600080fd5b505af19250505080156134e357506040513d601f19601f820116820180604052508101906134e09190613f15565b60015b613566573d8060008114613513576040519150601f19603f3d011682016040523d82523d6000602084013e613518565b606091505b5060008151141561355e576040517f08c379a000000000000000000000000000000000000000000000000000000000815260040161355590614e4d565b60405180910390fd5b805181602001fd5b63150b7a0260e01b7bffffffffffffffffffffffffffffffffffffffffffffffffffffffff1916817bffffffffffffffffffffffffffffffffffffffffffffffffffffffff1916149150506135bb565b600190505b949350505050565b600081600001805490509050919050565b600080836001016000848152602001908152602001600020541415905092915050565b60007f5a05180f000000000000000000000000000000000000000000000000000000007bffffffffffffffffffffffffffffffffffffffffffffffffffffffff1916827bffffffffffffffffffffffffffffffffffffffffffffffffffffffff1916148061366a57506136698261397e565b5b9050919050565b606060006002836002613684919061531c565b61368e9190615295565b67ffffffffffffffff8111156136cd577f4e487b7100000000000000000000000000000000000000000000000000000000600052604160045260246000fd5b6040519080825280601f01601f1916602001820160405280156136ff5781602001600182028036833780820191505090505b5090507f30000000000000000000000000000000000000000000000000000000000000008160008151811061375d577f4e487b7100000000000000000000000000000000000000000000000000000000600052603260045260246000fd5b60200101907effffffffffffffffffffffffffffffffffffffffffffffffffffffffffffff1916908160001a9053507f7800000000000000000000000000000000000000000000000000000000000000816001815181106137e7577f4e487b7100000000000000000000000000000000000000000000000000000000600052603260045260246000fd5b60200101907effffffffffffffffffffffffffffffffffffffffffffffffffffffffffffff1916908160001a90535060006001846002613827919061531c565b6138319190615295565b90505b600181111561391d577f3031323334353637383961626364656600000000000000000000000000000000600f861660108110613899577f4e487b7100000000000000000000000000000000000000000000000000000000600052603260045260246000fd5b1a60f81b8282815181106138d6577f4e487b7100000000000000000000000000000000000000000000000000000000600052603260045260246000fd5b60200101907effffffffffffffffffffffffffffffffffffffffffffffffffffffffffffff1916908160001a905350600485901c94508061391690615482565b9050613834565b5060008414613961576040517f08c379a000000000000000000000000000000000000000000000000000000000815260040161395890614ded565b60405180910390fd5b8091505092915050565b600080823b905060008111915050919050565b60007f7965db0b000000000000000000000000000000000000000000000000000000007bffffffffffffffffffffffffffffffffffffffffffffffffffffffff1916827bffffffffffffffffffffffffffffffffffffffffffffffffffffffff191614806139f157506139f0826139f8565b5b9050919050565b60007f01ffc9a7000000000000000000000000000000000000000000000000000000007bffffffffffffffffffffffffffffffffffffffffffffffffffffffff1916827bffffffffffffffffffffffffffffffffffffffffffffffffffffffff1916149050919050565b828054613a6e906154ac565b90600052602060002090601f016020900481019282613a905760008555613ad7565b82601f10613aa957805160ff1916838001178555613ad7565b82800160010185558215613ad7579182015b82811115613ad6578251825591602001919060010190613abb565b5b509050613ae49190613ae8565b5090565b5b80821115613b01576000816000905550600101613ae9565b5090565b6000613b18613b13846151b9565b615188565b905082815260208101848484011115613b3057600080fd5b613b3b848285615440565b509392505050565b6000613b56613b51846151e9565b615188565b905082815260208101848484011115613b6e57600080fd5b613b79848285615440565b509392505050565b600081359050613b9081615625565b92915050565b600081359050613ba58161563c565b92915050565b600081359050613bba81615653565b92915050565b600081359050613bcf8161566a565b92915050565b600081519050613be48161566a565b92915050565b600082601f830112613bfb57600080fd5b8135613c0b848260208601613b05565b91505092915050565b600082601f830112613c2557600080fd5b8135613c35848260208601613b43565b91505092915050565b600081359050613c4d81615681565b92915050565b600081359050613c6281615698565b92915050565b600060208284031215613c7a57600080fd5b6000613c8884828501613b81565b91505092915050565b60008060408385031215613ca457600080fd5b6000613cb285828601613b81565b9250506020613cc385828601613b81565b9150509250929050565b600080600060608486031215613ce257600080fd5b6000613cf086828701613b81565b9350506020613d0186828701613b81565b9250506040613d1286828701613c3e565b9150509250925092565b60008060008060808587031215613d3257600080fd5b6000613d4087828801613b81565b9450506020613d5187828801613b81565b9350506040613d6287828801613c3e565b925050606085013567ffffffffffffffff811115613d7f57600080fd5b613d8b87828801613bea565b91505092959194509250565b60008060408385031215613daa57600080fd5b6000613db885828601613b81565b9250506020613dc985828601613b96565b9150509250929050565b60008060408385031215613de657600080fd5b6000613df485828601613b81565b9250506020613e0585828601613c3e565b9150509250929050565b60008060408385031215613e2257600080fd5b6000613e3085828601613b81565b9250506020613e4185828601613c53565b9150509250929050565b600060208284031215613e5d57600080fd5b6000613e6b84828501613bab565b91505092915050565b60008060408385031215613e8757600080fd5b6000613e9585828601613bab565b9250506020613ea685828601613b81565b9150509250929050565b60008060408385031215613ec357600080fd5b6000613ed185828601613bab565b9250506020613ee285828601613c3e565b9150509250929050565b600060208284031215613efe57600080fd5b6000613f0c84828501613bc0565b91505092915050565b600060208284031215613f2757600080fd5b6000613f3584828501613bd5565b91505092915050565b600060208284031215613f5057600080fd5b600082013567ffffffffffffffff811115613f6a57600080fd5b613f7684828501613c14565b91505092915050565b600060208284031215613f9157600080fd5b6000613f9f84828501613c3e565b91505092915050565b60008060408385031215613fbb57600080fd5b6000613fc985828601613c3e565b925050602083013567ffffffffffffffff811115613fe657600080fd5b613ff285828601613c14565b9150509250929050565b6000806040838503121561400f57600080fd5b600061401d85828601613c3e565b925050602061402e85828601613c3e565b9150509250929050565b60006140448383614c5c565b60208301905092915050565b614059816153aa565b82525050565b600061406a82615229565b6140748185615257565b935061407f83615219565b8060005b838110156140b05781516140978882614038565b97506140a28361524a565b925050600181019050614083565b5085935050505092915050565b6140c6816153bc565b82525050565b6140d5816153c8565b82525050565b60006140e682615234565b6140f08185615268565b935061410081856020860161544f565b61410981615614565b840191505092915050565b600061411f8261523f565b6141298185615279565b935061413981856020860161544f565b61414281615614565b840191505092915050565b60006141588261523f565b614162818561528a565b935061417281856020860161544f565b80840191505092915050565b600061418b602083615279565b91507f537472696e67733a20686578206c656e67746820696e73756666696369656e746000830152602082019050919050565b60006141cb602483615279565b91507f4d75737420686176652061646d696e20726f6c6520746f206368616e6765207060008301527f72696365000000000000000000000000000000000000000000000000000000006020830152604082019050919050565b6000614231602b83615279565b91507f455243373231456e756d657261626c653a206f776e657220696e646578206f7560008301527f74206f6620626f756e64730000000000000000000000000000000000000000006020830152604082019050919050565b6000614297603283615279565b91507f4552433732313a207472616e7366657220746f206e6f6e20455243373231526560008301527f63656976657220696d706c656d656e74657200000000000000000000000000006020830152604082019050919050565b60006142fd602683615279565b91507f4f776e61626c653a206e6577206f776e657220697320746865207a65726f206160008301527f64647265737300000000000000000000000000000000000000000000000000006020830152604082019050919050565b6000614363602b83615279565b91507f4e6f7420656e6f75676820746f6b656e73206c65667420746f206d696e74207460008301527f68697320616d6f756e742e0000000000000000000000000000000000000000006020830152604082019050919050565b60006143c9601c83615279565b91507f4552433732313a20746f6b656e20616c7265616479206d696e746564000000006000830152602082019050919050565b6000614409602483615279565b91507f4552433732313a207472616e7366657220746f20746865207a65726f2061646460008301527f72657373000000000000000000000000000000000000000000000000000000006020830152604082019050919050565b600061446f601983615279565b91507f4552433732313a20617070726f766520746f2063616c6c6572000000000000006000830152602082019050919050565b60006144af602883615279565b91507f4d75737420686176652061646d696e20726f6c6520746f206368616e6765207460008301527f6f6b656e205552490000000000000000000000000000000000000000000000006020830152604082019050919050565b6000614515602c83615279565b91507f4552433732313a206f70657261746f7220717565727920666f72206e6f6e657860008301527f697374656e7420746f6b656e00000000000000000000000000000000000000006020830152604082019050919050565b600061457b603883615279565b91507f4552433732313a20617070726f76652063616c6c6572206973206e6f74206f7760008301527f6e6572206e6f7220617070726f76656420666f7220616c6c00000000000000006020830152604082019050919050565b60006145e1602a83615279565b91507f4552433732313a2062616c616e636520717565727920666f7220746865207a6560008301527f726f2061646472657373000000000000000000000000000000000000000000006020830152604082019050919050565b6000614647602983615279565b91507f4552433732313a206f776e657220717565727920666f72206e6f6e657869737460008301527f656e7420746f6b656e00000000000000000000000000000000000000000000006020830152604082019050919050565b60006146ad602e83615279565b91507f45524337323155524953746f726167653a2055524920736574206f66206e6f6e60008301527f6578697374656e7420746f6b656e0000000000000000000000000000000000006020830152604082019050919050565b6000614713602083615279565b91507f4552433732313a206d696e7420746f20746865207a65726f20616464726573736000830152602082019050919050565b6000614753602c83615279565b91507f4552433732313a20617070726f76656420717565727920666f72206e6f6e657860008301527f697374656e7420746f6b656e00000000000000000000000000000000000000006020830152604082019050919050565b60006147b960058361528a565b91507f2e6a736f6e0000000000000000000000000000000000000000000000000000006000830152600582019050919050565b60006147f9602083615279565b91507f4f776e61626c653a2063616c6c6572206973206e6f7420746865206f776e65726000830152602082019050919050565b6000614839602983615279565b91507f4552433732313a207472616e73666572206f6620746f6b656e2074686174206960008301527f73206e6f74206f776e00000000000000000000000000000000000000000000006020830152604082019050919050565b600061489f602f83615279565b91507f4552433732314d657461646174613a2055524920717565727920666f72206e6f60008301527f6e6578697374656e7420746f6b656e00000000000000000000000000000000006020830152604082019050919050565b6000614905602183615279565b91507f4552433732313a20617070726f76616c20746f2063757272656e74206f776e6560008301527f72000000000000000000000000000000000000000000000000000000000000006020830152604082019050919050565b600061496b602283615279565b91507f4e6f7420656e6f756768206176617820696e2077616c6c657420746f206d696e60008301527f742e0000000000000000000000000000000000000000000000000000000000006020830152604082019050919050565b60006149d1603183615279565b91507f4552433732313a207472616e736665722063616c6c6572206973206e6f74206f60008301527f776e6572206e6f7220617070726f7665640000000000000000000000000000006020830152604082019050919050565b6000614a37602783615279565b91507f4d75737420686176652061646d696e20726f6c6520746f206368616e6765206260008301527f61736520555249000000000000000000000000000000000000000000000000006020830152604082019050919050565b6000614a9d602c83615279565b91507f455243373231456e756d657261626c653a20676c6f62616c20696e646578206f60008301527f7574206f6620626f756e647300000000000000000000000000000000000000006020830152604082019050919050565b6000614b0360178361528a565b91507f416363657373436f6e74726f6c3a206163636f756e74200000000000000000006000830152601782019050919050565b6000614b43601f83615279565b91507f4f6e6c792032302063616e206265206d696e74656420617420612074696d65006000830152602082019050919050565b6000614b8360118361528a565b91507f206973206d697373696e6720726f6c65200000000000000000000000000000006000830152601182019050919050565b6000614bc3602083615279565b91507f4d75737420686176652061646d696e20726f6c6520746f2077697468647261776000830152602082019050919050565b6000614c03602f83615279565b91507f416363657373436f6e74726f6c3a2063616e206f6e6c792072656e6f756e636560008301527f20726f6c657320666f722073656c6600000000000000000000000000000000006020830152604082019050919050565b614c658161541e565b82525050565b614c748161541e565b82525050565b6000614c86828561414d565b9150614c92828461414d565b9150614c9d826147ac565b91508190509392505050565b6000614cb482614af6565b9150614cc0828561414d565b9150614ccb82614b76565b9150614cd7828461414d565b91508190509392505050565b6000602082019050614cf86000830184614050565b92915050565b6000608082019050614d136000830187614050565b614d206020830186614050565b614d2d6040830185614c6b565b8181036060830152614d3f81846140db565b905095945050505050565b6000604082019050614d5f6000830185614050565b614d6c6020830184614c6b565b9392505050565b60006020820190508181036000830152614d8d818461405f565b905092915050565b6000602082019050614daa60008301846140bd565b92915050565b6000602082019050614dc560008301846140cc565b92915050565b60006020820190508181036000830152614de58184614114565b905092915050565b60006020820190508181036000830152614e068161417e565b9050919050565b60006020820190508181036000830152614e26816141be565b9050919050565b60006020820190508181036000830152614e4681614224565b9050919050565b60006020820190508181036000830152614e668161428a565b9050919050565b60006020820190508181036000830152614e86816142f0565b9050919050565b60006020820190508181036000830152614ea681614356565b9050919050565b60006020820190508181036000830152614ec6816143bc565b9050919050565b60006020820190508181036000830152614ee6816143fc565b9050919050565b60006020820190508181036000830152614f0681614462565b9050919050565b60006020820190508181036000830152614f26816144a2565b9050919050565b60006020820190508181036000830152614f4681614508565b9050919050565b60006020820190508181036000830152614f668161456e565b9050919050565b60006020820190508181036000830152614f86816145d4565b9050919050565b60006020820190508181036000830152614fa68161463a565b9050919050565b60006020820190508181036000830152614fc6816146a0565b9050919050565b60006020820190508181036000830152614fe681614706565b9050919050565b6000602082019050818103600083015261500681614746565b9050919050565b60006020820190508181036000830152615026816147ec565b9050919050565b600060208201905081810360008301526150468161482c565b9050919050565b6000602082019050818103600083015261506681614892565b9050919050565b60006020820190508181036000830152615086816148f8565b9050919050565b600060208201905081810360008301526150a68161495e565b9050919050565b600060208201905081810360008301526150c6816149c4565b9050919050565b600060208201905081810360008301526150e681614a2a565b9050919050565b6000602082019050818103600083015261510681614a90565b9050919050565b6000602082019050818103600083015261512681614b36565b9050919050565b6000602082019050818103600083015261514681614bb6565b9050919050565b6000602082019050818103600083015261516681614bf6565b9050919050565b60006020820190506151826000830184614c6b565b92915050565b6000604051905081810181811067ffffffffffffffff821117156151af576151ae6155e5565b5b8060405250919050565b600067ffffffffffffffff8211156151d4576151d36155e5565b5b601f19601f8301169050602081019050919050565b600067ffffffffffffffff821115615204576152036155e5565b5b601f19601f8301169050602081019050919050565b6000819050602082019050919050565b600081519050919050565b600081519050919050565b600081519050919050565b6000602082019050919050565b600082825260208201905092915050565b600082825260208201905092915050565b600082825260208201905092915050565b600081905092915050565b60006152a08261541e565b91506152ab8361541e565b9250827fffffffffffffffffffffffffffffffffffffffffffffffffffffffffffffffff038211156152e0576152df615558565b5b828201905092915050565b60006152f68261541e565b91506153018361541e565b92508261531157615310615587565b5b828204905092915050565b60006153278261541e565b91506153328361541e565b9250817fffffffffffffffffffffffffffffffffffffffffffffffffffffffffffffffff048311821515161561536b5761536a615558565b5b828202905092915050565b60006153818261541e565b915061538c8361541e565b92508282101561539f5761539e615558565b5b828203905092915050565b60006153b5826153fe565b9050919050565b60008115159050919050565b6000819050919050565b60007fffffffff0000000000000000000000000000000000000000000000000000000082169050919050565b600073ffffffffffffffffffffffffffffffffffffffff82169050919050565b6000819050919050565b60006bffffffffffffffffffffffff82169050919050565b82818337600083830152505050565b60005b8381101561546d578082015181840152602081019050615452565b8381111561547c576000848401525b50505050565b600061548d8261541e565b915060008214156154a1576154a0615558565b5b600182039050919050565b600060028204905060018216806154c457607f821691505b602082108114156154d8576154d76155b6565b5b50919050565b60006154e98261541e565b91507fffffffffffffffffffffffffffffffffffffffffffffffffffffffffffffffff82141561551c5761551b615558565b5b600182019050919050565b60006155328261541e565b915061553d8361541e565b92508261554d5761554c615587565b5b828206905092915050565b7f4e487b7100000000000000000000000000000000000000000000000000000000600052601160045260246000fd5b7f4e487b7100000000000000000000000000000000000000000000000000000000600052601260045260246000fd5b7f4e487b7100000000000000000000000000000000000000000000000000000000600052602260045260246000fd5b7f4e487b7100000000000000000000000000000000000000000000000000000000600052604160045260246000fd5b6000601f19601f8301169050919050565b61562e816153aa565b811461563957600080fd5b50565b615645816153bc565b811461565057600080fd5b50565b61565c816153c8565b811461566757600080fd5b50565b615673816153d2565b811461567e57600080fd5b50565b61568a8161541e565b811461569557600080fd5b50565b6156a181615428565b81146156ac57600080fd5b5056fea2646970667358221220f9a7b2b415b90772b4f5b27739952ffa4532eb78f0498e008959358c99df760764736f6c63430008000033",
  "linkReferences": {},
  "deployedLinkReferences": {}
}